:100000000C945D000C9485000C9485000C94850084
:100010000C9485000C9485000C9485000C9485004C
:100020000C9485000C9485000C9485000C9485003C
:100030000C9485000C9485000C9485000C9485002C
:100040000C9427040C9485000C9497040C94710470
:100050000C9485000C9485000C9485000C9485000C
:100060000C94C9040C9485000000000024002700B3
:100070002A0000000000250028002B0004040404CE
:100080000404040402020202020203030303030342
:10009000010204081020408001020408102001021F
:1000A00004081020000000080002010000030407FB
:1000B0000000000000000000F70511241FBECFEF74
:1000C000D8E0DEBFCDBF11E0A0E0B1E0E0EDF3E1AC
:1000D00002C005900D92A834B107D9F722E0A8E438
:1000E000B1E001C01D92AA3BB207E1F710E0CDE5F7
:1000F000D0E004C02197FE010E94DB09CC35D10776
:10010000C9F70E943F060C94E6090C94000090E0A9
:10011000FC01EC55FF4F2491FC01E057FF4F349157
:10012000FC01E458FF4FE491EE2309F43CC0222384
:1001300039F1233091F038F42130A9F0223001F563
:1001400084B58F7D12C0273091F02830A1F0243083
:10015000B9F4809180008F7D03C0809180008F77FB
:10016000809380000DC084B58F7784BD09C08091D5
:10017000B0008F7703C08091B0008F7D8093B00076
:10018000F0E0EE0FFF1FEE58FF4FA591B4919FB71F
:10019000F894611104C08C913095382302C0EC9121
:1001A0003E2B3C939FBF08953FB7F8948091010286
:1001B00090910202A0910302B091040226B5A89B7F
:1001C00005C02F3F19F00196A11DB11D3FBFBA2FE9
:1001D000A92F982F8827820F911DA11DB11DBC0149
:1001E000CD0142E0660F771F881F991F4A95D1F70E
:1001F00008958F929F92AF92BF92CF92DF92EF922B
:10020000FF926B017C010E94D4004B015C01C11480
:10021000D104E104F104F1F00E94D400DC01CB012F
:1002200088199909AA09BB09883E9340A105B1051F
:1002300070F321E0C21AD108E108F10888EE880EB7
:1002400083E0981EA11CB11CC114D104E104F10487
:1002500019F7DDCFFF90EF90DF90CF90BF90AF9078
:100260009F908F900895CF92DF92EF92FF920F931D
:100270001F93CF93DF936C017A018B01C0E0D0E034
:10028000CE15DF0581F0D8016D918D01D601ED917C
:10029000FC910190F081E02DC6010995892B11F0A8
:1002A0002196EECF7E01C701DF91CF911F910F9173
:1002B000FF90EF90DF90CF90089508950895FC018E
:1002C000538D448D252F30E0842F90E0821B930BBB
:1002D000541710F0CF96089501970895FC01918D61
:1002E000828D981761F0828DDF01A80FB11D5D9698
:1002F0008C91928D9F5F9F73928F90E008958FEF06
:100300009FEF0895FC01918D828D981731F0828DB9
:10031000E80FF11D858D90E008958FEF9FEF089510
:10032000FC01918D228D892F90E0805C9F4F821B74
:1003300091098F739927089585E092E00E949001BA
:1003400021E0892B09F420E0822F0895FC01848D9F
:10035000DF01A80FB11DA35ABF4F2C91848D90E0EF
:1003600001968F739927848FA689B7892C93A089CA
:10037000B1898C91837080648C93938D848D981354
:1003800006C00288F389E02D80818F7D80830895E7
:10039000EF92FF920F931F93CF93DF93EC0181E0D5
:1003A000888F9B8D8C8D981305C0E889F989808191
:1003B00085FD26C0F62E0B8D10E00F5F1F4F0F73CB
:1003C0001127E02E8C8DE8120CC00FB607FCFACF77
:1003D000E889F989808185FFF5CFCE010E94A601C9
:1003E000F1CF8B8DFE01E80FF11DE35AFF4FF08234
:1003F0009FB7F8940B8FEA89FB89808180620AC0DD
:100400009FB7F894EE89FF896083E889F989808134
:100410008370806480839FBF81E090E0DF91CF9103
:100420001F910F91FF90EF900895CF93DF93EC0110
:10043000888D8823C9F0EA89FB89808185FD05C004
:10044000A889B9898C9186FD0FC00FB607FCF5CF3E
:10045000808185FFF2CFA889B9898C9185FFEDCF86
:10046000CE010E94A601E7CFDF91CF91089580E0F1
:1004700090E0892B29F00E949C0181110C940000CE
:10048000089585ED8093BC008091BC0084FDFCCF75
:100490001092F70108954091AA01262F30E0240F11
:1004A000311D21323105DCF42091F7012430C9F4EB
:1004B000FC0180E090E0861758F43091AA01219168
:1004C000DC01A657BE4FA30FB11D2C930196F3CFAD
:1004D0008091AA01680F6093AA0180E0089581E0ED
:1004E000089582E008950895E091FB018091FA015A
:1004F000E81730F4F0E0E659FE4F808190E008956F
:100500008FEF9FEF08959091FB018091FA0198176A
:1005100050F4E92FF0E0E659FE4F208130E09F5F74
:100520009093FB0102C02FEF3FEFC9010895809126
:10053000FA0190E02091FB01821B91090895CF926E
:10054000DF92EF92FF920F931F93CF93DF937C0183
:10055000CB018A0120916901222389F0EB016B0113
:10056000C40ED51ECC15DD0569F06991D701ED915A
:10057000FC910190F081E02DC7010995F3CF642F24
:100580000E944B02C801DF91CF911F910F91FF9004
:10059000EF90DF90CF900895CF93DF931F92CDB768
:1005A000DEB76983209169012223D1F02091F801FF
:1005B000203240F021E030E0FC013383228380E0F0
:1005C00090E015C08091F901E82FF0E0E75BFE4F65
:1005D000998190838F5F8093F9018093F80105C022
:1005E00061E0CE0101960E944B0281E090E00F9005
:1005F000DF91CF910895CF93FC01C48121E0209336
:100600006901C09348011092F9011092F8018385A5
:10061000682B82EA92E00E94CC029091F80191321C
:1006200008F045C08091F7018111FCCF82E08093F2
:10063000F70181E08093F6018FEF8093CD01109256
:10064000EF019093EE01A9E4B1E0EEECF1E080E07F
:10065000981721F02D9121938F5FFACF1092F0011E
:100660008091F001CC0FC82BC093F0018091F5016F
:10067000813061F41092F5018091F0018093BB000C
:100680008091BC0083FDF8CF85EC01C085EE80939E
:10069000BC008091F7018230E1F38091CD018F3F62
:1006A00031F08091CD01803211F08091CD01109216
:1006B000F9011092F80110926901CF9108950F93FA
:1006C0001F93CF938C01C62F0E94FB026C2F646096
:1006D000C8010E94FB026C2F6B7FC8010E94FB02C5
:1006E00083EC90E00197F1F7CF911F910F9108955E
:1006F0000F931F93CF93DF938C01C62FD42F607F6E
:10070000642B0E945F0380E1C89FB00111246D2B10
:10071000C801DF91CF911F910F910C945F03CF938C
:10072000DF93CDB7DEB728970FB6F894DEBF0FBEC4
:10073000CDBF98E0E0E0F1E0DE01119601900D926E
:100740009A95E1F79091B602981710F48FEF890F00
:10075000FE013196E80FF11DE80FF11D6081606820
:1007600040E08EEA92E028960FB6F894DEBF0FBE06
:10077000CDBFDF91CF910C94780341E00E947803C4
:1007800081E090E00895089580E090E0089561157B
:10079000710579F0FB0101900020E9F73197AF0175
:1007A000461B570BDC01ED91FC910280F381E02D9B
:1007B000099480E090E008958F929F92AF92BF924B
:1007C000EF92FF920F931F93CF93DF93CDB7DEB7D6
:1007D000A1970FB6F894DEBF0FBECDBF7C01FA0122
:1007E000CB0119A2223008F42AE08E010F5D1F4FC1
:1007F000822E912CA12CB12CBF01A50194010E9445
:10080000A509F901CA01015011096A3014F4605DAB
:1008100001C0695CD8016C93232B242B252B61F735
:10082000B801C7010E94C703A1960FB6F894DEBFB6
:100830000FBECDBFDF91CF911F910F91FF90EF9031
:10084000BF90AF909F908F9008950E94E1091F92F2
:100850000F920FB60F9211242F933F938F939F9374
:10086000AF93BF938091FD019091FE01A091FF0194
:10087000B09100023091FC0123E0230F2D3720F4CA
:100880000196A11DB11D05C026E8230F0296A11DEA
:10089000B11D2093FC018093FD019093FE01A09374
:1008A000FF01B09300028091010290910202A09199
:1008B0000302B09104020196A11DB11D80930102B3
:1008C00090930202A0930302B0930402BF91AF91F0
:1008D0009F918F913F912F910F900FBE0F901F907E
:1008E00018951F920F920FB60F9211242F933F93DA
:1008F0004F935F936F937F938F939F93AF93BF9328
:10090000EF93FF9385E092E00E94A601FF91EF91A3
:10091000BF91AF919F918F917F916F915F914F9117
:100920003F912F910F900FBE0F901F9018951F921F
:100930000F920FB60F9211242F938F939F93EF93E3
:10094000FF93E0911502F09116028081E0911B0265
:10095000F0911C0282FD12C0908180911E028F5F77
:100960008F7320911F02821751F0E0911E02F0E078
:10097000EB5FFD4F958F80931E0201C08081FF9138
:10098000EF919F918F912F910F900FBE0F901F901D
:1009900018951F920F920FB60F9211242F933F9329
:1009A0004F935F936F937F938F939F93AF93BF9377
:1009B000EF93FF938091B900887F803609F49CC043
:1009C00068F5883209F45BC090F4803109F454C0B2
:1009D00038F4882309F4F6C0883009F44DC0F6C015
:1009E000883109F44CC0803209F45DC0EFC0803416
:1009F00009F468C048F4803309F455C0883309F01D
:100A0000E5C08093CD01D8C0803509F44FC088354A
:100A100009F45DC0883409F0D9C0D6C0883909F41A
:100A2000C7C0A8F4883709F467C038F4883609F4D9
:100A300063C0803709F460C0C9C0883809F4B8C001
:100A4000803909F45FC0803809F0C0C05BC0803BCA
:100A500009F486C038F4803A09F466C0883A09F48B
:100A60007FC0B4C0803C09F4A7C0883C09F4A4C08E
:100A7000883B09F48AC0AAC08091F00110C090910F
:100A8000EF018091EE01981770F5E091EF0181E0A0
:100A90008E0F8093EF01F0E0E253FE4F8081809350
:100AA000BB0085EC86C08093CD018EC0E091EF0144
:100AB00081E08E0F8093EF018091BB00F0E0E25364
:100AC000FE4F80839091EF018091EE016EC0E09126
:100AD000EF0181E08E0F8093EF018091BB00F0E089
:100AE000E253FE4F80838091F60181116DC081E059
:100AF0008093F50184EA61C083E08093F70110924E
:100B0000CC01CFCF8091CC01803208F051C0E09170
:100B1000CC0181E08E0F8093CC018091BB00F0E08E
:100B2000E455FE4F8083BDCF85EC8093BC001092CE
:100B3000F7018091CC01803230F4E091CC01F0E0FB
:100B4000E455FE4F10826091CC0170E0E091F1011C
:100B5000F091F2018CEA91E009951092CC0136C037
:100B600084E08093F7011092AB011092AA01E0910A
:100B7000F301F091F40109958091AA01811105C05A
:100B800081E08093AA0110928A01E091AB0181E09B
:100B90008E0F8093AB01F0E0E657FE4F808180938B
:100BA000BB009091AB018091AA01981708F479CF0E
:100BB00085E88093BC000AC085EC8093BC0010924D
:100BC000F70104C01092CD010E944102FF91EF9104
:100BD000BF91AF919F918F917F916F915F914F9155
:100BE0003F912F910F900FBE0F901F901895E5E049
:100BF000F2E01382128288EE93E0A0E0B0E08483FA
:100C00009583A683B7832CE031E03183208325ECE4
:100C100030E03587248724EC30E03787268720ECC6
:100C200030E0318B208B21EC30E0338B228B22ECB7
:100C300030E0358B248B26EC30E0378B268B118E01
:100C4000128E138E148EE2EAF2E0138212828483F3
:100C50009583A683B7838EE191E091838083EEEA4A
:100C6000F2E01382128280E391E09183808387E235
:100C7000848380E1818782E0828713860895789457
:100C800084B5826084BD84B5816084BD85B5826091
:100C900085BD85B5816085BD80916E008160809342
:100CA0006E001092810080918100826080938100AB
:100CB00080918100816080938100809180008160BB
:100CC000809380008091B10084608093B100809116
:100CD000B00081608093B00080917A00846080933E
:100CE0007A0080917A00826080937A0080917A0005
:100CF000816080937A0080917A00806880937A0086
:100D00001092C100E0911502F091160282E08083FA
:100D1000E0911102F09112021082E0911302F09121
:100D200014028FEC808310921D02E0911902F09161
:100D30001A0286E08083E0911702F0911802808108
:100D400080618083E0911702F091180280818860B1
:100D50008083E0911702F09118028081806880837F
:100D6000E0911702F091180280818F7D80831092AC
:100D7000FB011092FA011092F9011092F801109201
:100D8000F70181E08093F6011092F50161E082E1C4
:100D90000E94870061E083E10E9487008091B90092
:100DA0008E7F8093B9008091B9008D7F8093B900C8
:100DB00088E48093B80085E48093BC008DE591E0E1
:100DC0009093F4018093F3018EE591E09093F2010A
:100DD0008093F1011092B3028091B802823018F032
:100DE00098E09093B3028093B60262E370E080E0F3
:100DF00090E00E94F9006091B9028EEA92E00E94B0
:100E0000FB0268EE73E080E090E00E94F90060E38E
:100E10008EEA92E00E945F03CBE4D6E4CE01019714
:100E2000F1F760E38EEA92E00E945F032197F1F709
:100E300060E38EEA92E00E945F0383E592E001970F
:100E4000F1F760E28EEA92E00E945F036091B302E4
:100E5000606240E08EEA92E00E94780384E0809332
:100E6000B40240E06CE08EEA92E00E94780340E039
:100E700061E08EEA92E00E947803CBE3DFE1CE01ED
:100E80000197F1F782E08093B50240E066E08EEAD8
:100E900092E00E94780340E062E08EEA92E00E94D5
:100EA00078032197F1F788E08093B90260E08EEA39
:100EB00092E00E94FB0280E00E948F0368E371E0F1
:100EC0008EEA92E00E94C70341E4342E55E0E52EFD
:100ED000F12C66E9862E60E0962E72E8C72E70E04F
:100EE000D72EEAEAAE2EE0E0BE2E04E610E0309205
:100EF0007C0080917A00806480937A0080917A00EF
:100F000086FDFCCFC091780080917900D0E0D82B8D
:100F1000CE01B7010E949109F4012491F601849158
:100F2000882399F090E0880F991FFC01E859FF4F42
:100F3000A591B491FC01EE58FF4F859194919FB714
:100F4000F8948C91282B2C939FBF6115710511F497
:100F500060E004C06F3F710529F461E086E00E9403
:100F6000870042C0F50184918330F9F048F4813064
:100F7000B9F08230A1F584B5806284BD68BD34C00B
:100F80008730E9F0883019F1843049F5809180008C
:100F900080628093800070938B0060938A0024C0ED
:100FA00084B5806884BD67BD1FC080918000806863
:100FB00080938000709389006093880015C08091B1
:100FC000B00080688093B0006093B3000DC0809142
:100FD000B00080628093B0006093B40005C06038B8
:100FE00071050CF0BACFB4CF2E010D2E000C66089F
:100FF0007708D7FF0EC06DE285E092E00E94C8013D
:1010000044275527BA0144195509660977092AE08A
:1010100003C02AE0B301A20185E092E00E94DC0354
:1010200063E471E085E092E00E94C70362E370E050
:1010300080E090E00E94F9008CE00E948F03CE01D6
:10104000B8010E949109072E000C880B990BCD392D
:10105000DF4F4CF00E94050920E030E040E05FE304
:101060000E94610808C00E94050920E030E040E0CD
:101070005FE30E9460080E94CD082B013C0197FFAE
:101080000FC041E06DE28EEA92E00E9478034427AF
:101090005527BA0144195509660977092AE003C0A2
:1010A0002AE0AB01BC018EEA92E00E94DC0366E418
:1010B00071E08EEA92E00E94C7030E94370217CFC8
:1010C0005058BB27AA270E9478080C9457090E9401
:1010D000490938F00E94500920F039F49F3F19F473
:1010E00026F40C9446090EF4E095E7FB0C944009B5
:1010F000E92F0E94680958F3BA176207730784073B
:10110000950720F079F4A6F50C948A090EF4E09581
:101110000B2EBA2FA02D0B01B90190010C01CA01B1
:10112000A0011124FF27591B99F0593F50F4503E5C
:1011300068F11A16F040A22F232F342F4427585F4E
:10114000F3CF469537952795A795F0405395C9F766
:101150007EF41F16BA0B620B730B840BBAF091501E
:10116000A1F0FF0FBB1F661F771F881FC2F70EC0BD
:10117000BA0F621F731F841F48F487957795679590
:10118000B795F7959E3F08F0B0CF9395880F08F07C
:101190009927EE0F9795879508950E94D408689433
:1011A000B1110C948B0908950E94700988F09F5723
:1011B00098F0B92F9927B751B0F0E1F0660F771F7B
:1011C000881F991F1AF0BA95C9F714C0B13091F071
:1011D0000E948A09B1E008950C948A09672F782F3C
:1011E0008827B85F39F0B93FCCF386957795679536
:1011F000B395D9F73EF490958095709561957F4FA2
:101200008F4F9F4F0895E89409C097FB3EF4909547
:101210008095709561957F4F8F4F9F4F9923A9F0CF
:10122000F92F96E9BB279395F6958795779567955E
:10123000B795F111F8CFFAF4BB0F11F460FF1BC0A2
:101240006F5F7F4F8F4F9F4F16C0882311F096E935
:1012500011C0772321F09EE8872F762F05C06623E3
:1012600071F096E8862F70E060E02AF09A95660F9C
:10127000771F881FDAF7880F9695879597F9089555
:1012800097F99F6780E870E060E008959FEF80EC39
:10129000089500240A9416161706180609060895DC
:1012A00000240A9412161306140605060895092E42
:1012B0000394000C11F4882352F0BB0F40F4BF2BB1
:1012C00011F460FF04C06F5F7F4F8F4F9F4F0895F1
:1012D00057FD9058440F551F59F05F3F71F04795E7
:1012E000880F97FB991F61F09F3F79F087950895CC
:1012F000121613061406551FF2CF4695F1DF08C0EB
:10130000161617061806991FF1CF86957105610507
:1013100008940895E894BB2766277727CB0197F9AF
:10132000089597FB072E16F4009407D077FD09D097
:101330000E94C70907FC05D03EF4909581959F4F08
:101340000895709561957F4F0895A1E21A2EAA1B0A
:10135000BB1BFD010DC0AA1FBB1FEE1FFF1FA21765
:10136000B307E407F50720F0A21BB30BE40BF50B62
:10137000661F771F881F991F1A9469F760957095EB
:10138000809590959B01AC01BD01CF010895AA1BEA
:10139000BB1B51E107C0AA1FBB1FA617B70710F060
:1013A000A61BB70B881F991F5A95A9F78095909592
:1013B000BC01CD010895EE0FFF1F0590F491E02DC3
:1013C000099481E090E0F8940C94E609F894FFCF3A
:1013D000000040001400540000000000C801330168
:1013E0005F01150290016E01820100000000CC0235
:1013F0009F02C4037302970283027402000000007C
:10140000BD033301C403C3034272696768746E6528
:081410007373000D0A002000B7
:00000001FF
