:100000000C945D000C9485000C9485000C94850084
:100010000C9485000C9485000C9485000C9485004C
:100020000C9485000C9485000C9485000C9485003C
:100030000C9485000C9485000C9485000C9485002C
:100040000C945E030C9485000C9485000C94850040
:100050000C9485000C9485000C9485000C9485000C
:100060000C94A8030C9485000000000023002600D7
:10007000290000000000250028002B0004040404CF
:100080000404040402020202020203030303030342
:10009000010204081020408001020408102001021F
:1000A00004081020000000080002010000030407FB
:1000B0000000000000000000D60411241FBECFEF96
:1000C000D8E0DEBFCDBF11E0A0E0B1E0E6EBFCE0A0
:1000D00002C005900D92A633B107D9F722E0A6E33E
:1000E000B1E001C01D92AE30B207E1F710E0CDE5FE
:1000F000D0E004C02197FE010E944E06CC35D10706
:10010000C9F70E94F6040C9459060C940000833041
:1001100081F028F4813099F08230A1F00895873081
:10012000A9F08830B9F08430D1F4809180008F7DBF
:1001300003C0809180008F7780938000089584B5FC
:100140008F7702C084B58F7D84BD08958091B00003
:100150008F7703C08091B0008F7D8093B0000895A9
:10016000CF93DF93282F30E0F901EC55FF4F8491B6
:10017000F901E057FF4FD491F901E458FF4FC491C2
:10018000CC2389F081110E948700EC2FF0E0EE0F64
:10019000FF1FEE58FF4FA591B4918FB7F894EC91E3
:1001A000ED2BEC938FBFDF91CF910895CF93DF9329
:1001B000E6EAF0E08491E2E9F0E0D491EEE7F0E0E5
:1001C000C491CC2391F081110E948700EC2FF0E0C4
:1001D000EE0FFF1FE859FF4FA591B491EC91ED236D
:1001E00081E090E021F480E002C080E090E0DF91C7
:1001F000CF9108953FB7F8948091F2019091F30167
:10020000A091F401B091F50126B5A89B05C02F3F40
:1002100019F00196A11DB11D3FBFBA2FA92F982F2C
:100220008827820F911DA11DB11DBC01CD0142E0A7
:10023000660F771F881F991F4A95D1F708958F92EF
:100240009F92AF92BF92CF92DF92EF92FF926B019B
:100250007C010E94FA004B015C01C114D104E1044D
:10026000F104F1F00E94FA00DC01CB018819990930
:10027000AA09BB09883E9340A105B10570F321E0AE
:10028000C21AD108E108F10888EE880E83E0981EB2
:10029000A11CB11CC114D104E104F10419F7DDCF94
:1002A000FF90EF90DF90CF90BF90AF909F908F9096
:1002B0000895CF92DF92EF92FF920F931F93CF9307
:1002C000DF936C017A018B01C0E0D0E0CE15DF0531
:1002D00081F0D8016D918D01D601ED91FC910190D5
:1002E000F081E02DC6010995892B11F02196EECF02
:1002F0007E01C701DF91CF911F910F91FF90EF9089
:10030000DF90CF9008950895089585ED8093BC0007
:100310008091BC0084FDFCCF1092E50108954091CE
:100320009801262F30E0240F311D21323105DCF4F5
:100330002091E5012430C9F4FC0180E090E08617AB
:1003400058F4309198012191DC01A858BE4FA30FB9
:10035000B11D2C930196F3CF80919801680F6093A3
:10036000980180E0089581E0089582E0089508955D
:10037000E091E9018091E801E81730F4F0E0E85AF3
:10038000FE4F808190E008958FEF9FEF0895909148
:10039000E9018091E801981750F4E92FF0E0E85A5C
:1003A000FE4F208130E09F5F9093E90102C02FEF64
:1003B0003FEFC90108958091E80190E02091E901A3
:1003C000821B91090895CF92DF92EF92FF920F93D3
:1003D0001F93CF93DF937C01CB018A0120915701BA
:1003E000222389F0EB016B01C40ED51ECC15DD056F
:1003F00069F06991D701ED91FC910190F081E02DB8
:10040000C7010995F3CF642F0E948F01C801DF91C6
:10041000CF911F910F91FF90EF90DF90CF900895B3
:10042000CF93DF931F92CDB7DEB769832091570139
:100430002223D1F02091E601203240F021E030E08B
:10044000FC013383228380E090E015C08091E701B6
:10045000E82FF0E0E95CFE4F998190838F5F8093F5
:10046000E7018093E60105C061E0CE0101960E949C
:100470008F0181E090E00F90DF91CF910895CF93AD
:10048000FC01C48121E020935701C09336011092F2
:10049000E7011092E6018385682B86EF91E00E94C8
:1004A00010029091E601913208F045C08091E5017B
:1004B0008111FCCF82E08093E50181E08093E4012B
:1004C0008FEF8093BB011092DD019093DC01A7E3D5
:1004D000B1E0ECEBF1E080E0981721F02D91219351
:1004E0008F5FFACF1092DE018091DE01CC0FC82B16
:1004F000C093DE018091E301813061F41092E30149
:100500008091DE018093BB008091BC0083FDF8CF19
:1005100085EC01C085EE8093BC008091E5018230BE
:10052000E1F38091BB018F3F31F08091BB018032BC
:1005300011F08091BB011092E7011092E601109238
:100540005701CF9108950F931F93CF938C01C62F1E
:100550000E943F026C2F6460C8010E943F026C2F12
:100560006B7FC8010E943F0283EC90E00197F1F796
:10057000CF911F910F9108950F931F93CF93DF9306
:100580008C01C62FD42F607F642B0E94A30280E1D0
:10059000C89FB00111246D2BC801DF91CF911F912D
:1005A0000F910C94A302CF93DF93CDB7DEB72897BA
:1005B0000FB6F894DEBF0FBECDBF98E0E0E0F1E0EB
:1005C000DE01119601900D929A95E1F790910A0241
:1005D000981710F48FEF890FFE013196E80FF11D87
:1005E000E80FF11D6081606840E082E092E02896AB
:1005F0000FB6F894DEBF0FBECDBFDF91CF910C9444
:10060000BC0241E00E94BC0281E090E008950895A0
:1006100080E090E008958F929F92AF92BF920F93E7
:100620001F93CF93DF93CDB7DEB7A1970FB6F894A2
:10063000DEBF0FBECDBF19A2423008F44AE08E01E2
:100640000F5D1F4F842E912CA12CB12CA50194017C
:100650000E942C06E62FB901CA0101501109EA30A7
:1006600014F4E05D01C0E95CD801EC93232B242B4A
:10067000252B61F70115110571F0F801019000209B
:10068000E9F73197AF01401B510BB80182E092E0CE
:100690000E94590102C080E090E0A1960FB6F89444
:1006A000DEBF0FBECDBFDF91CF911F910F91BF90E5
:1006B000AF909F908F9008950E9454061F920F92C2
:1006C0000FB60F9211242F933F938F939F93AF9365
:1006D000BF938091EE019091EF01A091F001B09154
:1006E000F1013091ED0123E0230F2D3720F4019625
:1006F000A11DB11D05C026E8230F0296A11DB11D45
:100700002093ED018093EE019093EF01A093F0010F
:10071000B093F1018091F2019091F301A091F40165
:10072000B091F5010196A11DB11D8093F201909346
:10073000F301A093F401B093F501BF91AF919F91A4
:100740008F913F912F910F900FBE0F901F90189592
:100750001F920F920FB60F9211242F933F934F9336
:100760005F936F937F938F939F93AF93BF93EF9319
:10077000FF938091B900887F803609F49CC068F5AA
:10078000883209F45BC090F4803109F454C038F425
:10079000882309F4F6C0883009F44DC0F6C08831CA
:1007A00009F44CC0803209F45DC0EFC0803409F414
:1007B00068C048F4803309F455C0883309F0E5C0B7
:1007C0008093BB01D8C0803509F44FC0883509F447
:1007D0005DC0883409F0D9C0D6C0883909F4C7C0D3
:1007E000A8F4883709F467C038F4883609F463C080
:1007F000803709F460C0C9C0883809F4B8C08039AE
:1008000009F45FC0803809F0C0C05BC0803B09F4C8
:1008100086C038F4803A09F466C0883A09F47FC08B
:10082000B4C0803C09F4A7C0883C09F4A4C0883B4C
:1008300009F48AC0AAC08091DE0110C09091DD0148
:100840008091DC01981770F5E091DD0181E08E0F59
:100850008093DD01F0E0E454FE4F80818093BB0083
:1008600085EC86C08093BB018EC0E091DD0181E004
:100870008E0F8093DD018091BB00F0E0E454FE4FC9
:1008800080839091DD018091DC016EC0E091DD01FB
:1008900081E08E0F8093DD018091BB00F0E0E45495
:1008A000FE4F80838091E40181116DC081E08093CF
:1008B000E30184EA61C083E08093E5011092BA010C
:1008C000CFCF8091BA01803208F051C0E091BA01D7
:1008D00081E08E0F8093BA018091BB00F0E0E65674
:1008E000FE4F8083BDCF85EC8093BC001092E50164
:1008F0008091BA01803230F4E091BA01F0E0E6561E
:10090000FE4F10826091BA0170E0E091DF01F0913A
:10091000E0018AE991E009951092BA0136C084E0BD
:100920008093E5011092990110929801E091E10104
:10093000F091E201099580919801811105C081E053
:100940008093980110927801E091990181E08E0FD7
:1009500080939901F0E0E858FE4F80818093BB00BE
:100960009091990180919801981708F479CF85E8C2
:100970008093BC000AC085EC8093BC001092E50116
:1009800004C01092BB010E948501FF91EF91BF91BD
:10099000AF919F918F917F916F915F914F913F9117
:1009A0002F910F900FBE0F901F901895E6EFF1E07A
:1009B0001382128288EE93E0A0E0B0E084839583F6
:1009C000A683B7838CE091E091838083E2E0F2E03C
:1009D000138212828EE191E09183808387E2848387
:1009E00080E1818782E0828713860895789484B5B8
:1009F000826084BD84B5816084BD85B5826085BD1B
:100A000085B5816085BD80916E00816080936E00A8
:100A1000109281008091810082608093810080919A
:100A2000810081608093810080918000816080934B
:100A300080008091B10084608093B1008091B0000B
:100A400081608093B00080917A00846080937A0006
:100A500080917A00826080937A0080917A00816030
:100A600080937A0080917A00806880937A00109257
:100A7000C1001092E9011092E8011092E701109272
:100A8000E6011092E50181E08093E4011092E30118
:100A900082E10E94B00083E10E94B0008091B90021
:100AA0008E7F8093B9008091B9008D7F8093B900CB
:100AB00088E48093B80085E48093BC0083E891E0EB
:100AC0009093E2018093E10184E891E09093E0014A
:100AD0008093DF011092070280910C02823018F09F
:100AE00098E09093070280930A0262E370E080E04E
:100AF00090E00E941F0160910D0282E092E00E944E
:100B00003F0268EE73E080E090E00E941F0160E326
:100B100082E092E00E94A302CBE4D6E4CE010197EA
:100B2000F1F760E382E092E00E94A3022197F1F7DF
:100B300060E382E092E00E94A30283E592E00197E5
:100B4000F1F760E282E092E00E94A3026091070266
:100B5000606240E082E092E00E94BC0284E0809308
:100B6000080240E06CE082E092E00E94BC0240E0BB
:100B700061E082E092E00E94BC02CBE3DFE1CE01C3
:100B80000197F1F782E08093090240E066E082E09D
:100B900092E00E94BC0240E062E082E092E00E94AB
:100BA000BC022197F1F788E080930D0260E082E0BB
:100BB00092E00E943F0280E00E94D3024EE050E0AB
:100BC00066E271E082E092E00E945901C0E0D0E06C
:100BD00011E08091EC01882329F00E94D600892B36
:100BE000C1F12EC00E94D600019751F51093EC017F
:100BF000C090EA01D090EB018FEFC81AD80AD092CA
:100C0000EB01C092EA0181E00E94D3020D2C000C9E
:100C1000EE08FF08F7FE19C041E06DE282E092E0C5
:100C20000E94BC0266277727CB016C197D098E09CB
:100C30009F094AE00E940B038091EC018111CDCF06
:100C4000209739F20E940000C4CF4AE0C701B601E4
:100C5000F1CF1092EC01F4CFA1E21A2EAA1BBB1B1C
:100C6000FD010DC0AA1FBB1FEE1FFF1FA217B30778
:100C7000E407F50720F0A21BB30BE40BF50B661F8E
:100C8000771F881F991F1A9469F760957095809552
:100C900090959B01AC01BD01CF010895EE0FFF1FA0
:100CA0000590F491E02D099481E090E0F8940C9483
:060CB0005906F894FFCF85
:100CB6000000400014005400000000001002E30190
:100CC6000803B701DB01C701B801000000000103FA
:100CD600590108030703507265737320436F756EDD
:060CE6007465723A000083
:00000001FF
