:100000000C945D000C9497020C9470020C94850083
:100010000C9485000C9485000C9485000C9485004C
:100020000C9485000C9485000C9485000C9485003C
:100030000C9485000C9485000C9485000C9485002C
:100040000C9426020C9485000C94E4020C94BE02DD
:100050000C9485000C9485000C9485000C9485000C
:100060000C9485000C9485000000000024002700FB
:100070002A0000000000250028002B0004040404CE
:100080000404040402020202020203030303030342
:10009000010204081020408001020408102001021F
:1000A00004081020000000080002010000030407FB
:1000B0000000000000000000270411241FBECFEF45
:1000C000D8E0DEBFCDBF11E0A0E0B1E0E6E0F9E0AE
:1000D00002C005900D92AA31B107D9F721E0AAE13B
:1000E000B1E001C01D92A33CB207E1F710E0CDE5FD
:1000F000D0E004C02197FE010E947604CC35D107E0
:10010000C9F70E9416030C9481040C940000089512
:10011000CF92DF92EF92FF920F931F93CF93DF93D3
:100120006C017A018B01C0E0D0E0CE15DF0581F0D3
:10013000D8016D918D01D601ED91FC910190F08176
:10014000E02DC6010995892B11F02196EECF7E0195
:10015000C701DF91CF911F910F91FF90EF90DF903A
:10016000CF900895089580E090E00895FC01538DAC
:10017000448D252F30E0842F90E0821B930B541781
:1001800010F0CF96089501970895FC01918D828D0E
:10019000981761F0828DDF01A80FB11D5D968C91DB
:1001A000928D9F5F9F73928F90E008958FEF9FEFE6
:1001B0000895FC01918D828D981731F0828DE80FA2
:1001C000F11D858D90E008958FEF9FEF0895FC015C
:1001D000918D228D892F90E0805C9F4F821B910929
:1001E0008F739927089586E291E00E94E70021E04D
:1001F000892B09F420E0822F0895FC01848DDF0112
:10020000A80FB11DA35ABF4F2C91848D90E0019689
:100210008F739927848FA689B7892C93A089B18978
:100220008C91837080648C93938D848D981306C019
:100230000288F389E02D80818F7D80830895EF927D
:10024000FF920F931F93CF93DF93EC0181E0888F90
:100250009B8D8C8D981305C0E889F989808185FD77
:1002600026C0F62E0B8D10E00F5F1F4F0F73112766
:10027000E02E8C8DE8120CC00FB607FCFACFE8898F
:10028000F989808185FFF5CFCE010E94FD00F1CF75
:100290008B8DFE01E80FF11DE35AFF4FF0829FB7EF
:1002A000F8940B8FEA89FB89808180620AC09FB72E
:1002B000F894EE89FF896083E889F98980818370E9
:1002C000806480839FBF81E090E0DF91CF911F9198
:1002D0000F91FF90EF900895CF93DF93EC01888DFD
:1002E0008823C9F0EA89FB89808185FD05C0A8893A
:1002F000B9898C9186FD0FC00FB607FCF5CF8081C0
:1003000085FFF2CFA889B9898C9185FFEDCFCE0109
:100310000E94FD00E7CFDF91CF91089580E090E04B
:10032000892B29F00E94F30081110C94000008959C
:100330008F929F92AF92BF920F931F93CF93DF93B1
:10034000CDB7DEB7A1970FB6F894DEBF0FBECDBF15
:1003500019A2423008F44AE08E010F5D1F4F842E2F
:10036000912CA12CB12CA50194010E945404E62FDC
:10037000B901CA0101501109EA3014F4E05D01C06D
:10038000E95CD801EC93232B242B252B61F7011575
:10039000110571F0F80101900020E9F73197AF01E4
:1003A000401B510BB80186E291E00E94880002C018
:1003B00080E090E0A1960FB6F894DEBF0FBECDBFEF
:1003C000DF91CF911F910F91BF90AF909F908F9031
:1003D00008950E947C04CF92DF92EF92FF92909159
:1003E0001C0181E0911180E080931C01C0901A01F2
:1003F000D0901B018FEFC81AD80AD0921B01C0926F
:100400001A010D2C000CEE08FF08F7FE0EC06DE27D
:1004100086E291E00E941F0166277727CB016C19C5
:100420007D098E099F094AE003C04AE0C701B60171
:100430000E94980142E050E066E171E086E291E0BE
:10044000FF90EF90DF90CF900C9488001F920F9256
:100450000FB60F9211242F933F938F939F93AF93D7
:10046000BF938091220190912301A0912401B0912A
:1004700025013091210123E0230F2D3720F401962F
:10048000A11DB11D05C026E8230F0296A11DB11DB7
:10049000209321018093220190932301A0932401B2
:1004A000B093250180911D0190911E01A0911F0123
:1004B000B09120010196A11DB11D80931D01909363
:1004C0001E01A0931F01B0932001BF91AF919F9196
:1004D0008F913F912F910F900FBE0F901F90189505
:1004E0001F920F920FB60F9211242F933F934F93A9
:1004F0005F936F937F938F939F93AF93BF93EF938C
:10050000FF93E0910201F09103010995FF91EF91B2
:10051000BF91AF919F918F917F916F915F914F911B
:100520003F912F910F900FBE0F901F9018951F9223
:100530000F920FB60F9211242F933F934F935F9317
:100540006F937F938F939F93AF93BF93EF93FF939B
:10055000E0910001F09101010995FF91EF91BF91A8
:10056000AF919F918F917F916F915F914F913F914B
:100570002F910F900FBE0F901F9018951F920F9202
:100580000FB60F9211242F933F934F935F936F9366
:100590007F938F939F93AF93BF93EF93FF9386E2E5
:1005A00091E00E94FD00FF91EF91BF91AF919F916B
:1005B0008F917F916F915F914F913F912F910F900C
:1005C0000FBE0F901F9018951F920F920FB60F92AB
:1005D00011242F938F939F93EF93FF93E091360114
:1005E000F09137018081E0913C01F0913D0182FD65
:1005F00012C0908180913F018F5F8F7320914001E5
:10060000821751F0E0913F01F0E0EA5DFE4F958FD7
:1006100080933F0101C08081FF91EF919F918F9165
:100620002F910F900FBE0F901F901895789484B55E
:10063000826084BD84B5816084BD85B5826085BDDE
:1006400085B5816085BD80916E00816080936E006C
:10065000109281008091810082608093810080915E
:10066000810081608093810080918000816080930F
:1006700080008091B10084608093B1008091B000CF
:1006800081608093B00080917A00846080937A00CA
:1006900080917A00826080937A0080917A008160F4
:1006A00080937A0080917A00806880937A0010921B
:1006B000C100CDE9D0E0FE01249109E810E0F80185
:1006C0008491882399F090E0880F991FFC01E859E4
:1006D000FF4FA591B491FC01EE58FF4F8591949185
:1006E0009FB7F8948C91822B8C939FBFE2E9F0E046
:1006F0002491EEE7F0E084918823C9F090E0880F20
:10070000991FFC01E859FF4FA591B491FC01EE58E7
:10071000FF4F459154919FB7F8948C91322F3095AB
:1007200083238C93DA01EC912E2B2C939FBFE091C5
:100730003601F091370182E08083E0913201F0913F
:1007400033011082E0913401F09135018FEC808308
:1007500010923E01E0913A01F0913B0186E08083E6
:10076000E0913801F0913901808180618083E091CE
:100770003801F0913901808188608083E0913801EF
:10078000F0913901808180688083E0913801F09197
:10079000390180818F7D80838BEE91E09093010100
:1007A00080930001809169008C7F81608093690053
:1007B000E89A91EBE92E90E0F92E20911C01F701C7
:1007C0008491FE019491F8013491332309F43CC0E3
:1007D000882339F1833091F038F48130A9F08230E8
:1007E00001F584B58F7D12C0873091F08830A1F07B
:1007F0008430B9F4809180008F7D03C080918000A7
:100800008F77809380000DC084B58F7784BD09C039
:100810008091B0008F7703C08091B0008F7D80936E
:10082000B000E32FF0E0EE0FFF1FEE58FF4FA59151
:10083000B4913FB7F8948C91211103C090959823FF
:1008400001C0982B9C933FBF0E948E01B6CFE6E279
:10085000F1E01382128288EE93E0A0E0B0E084839E
:100860009583A683B78388E091E09183808385ECAC
:1008700090E09587848784EC90E09787868780EC6A
:1008800090E0918B808B81EC90E0938B828B82EC5B
:1008900090E0958B848B86EC90E0978B868B118E05
:1008A000128E138E148E0895A1E21A2EAA1BBB1B62
:1008B000FD010DC0AA1FBB1FEE1FFF1FA217B3072C
:1008C000E407F50720F0A21BB30BE40BF50B661F42
:1008D000771F881F991F1A9469F760957095809506
:1008E00090959B01AC01BD01CF010895EE0FFF1F54
:1008F0000590F491E02D099481E090E0F8940C9437
:060900008104F894FFCF12
:1009060087008700000000001F018800B6006C0108
:0A091600E700C500D9000D0A00003B
:00000001FF
